{
  "abi": [
    {
      "inputs": [
        {
          "internalType": "string",
          "name": "name_",
          "type": "string"
        },
        {
          "internalType": "string",
          "name": "symbol_",
          "type": "string"
        }
      ],
      "stateMutability": "nonpayable",
      "type": "constructor"
    },
    {
      "anonymous": false,
      "inputs": [
        {
          "indexed": true,
          "internalType": "address",
          "name": "from",
          "type": "address"
        },
        {
          "indexed": true,
          "internalType": "address",
          "name": "to",
          "type": "address"
        },
        {
          "indexed": true,
          "internalType": "uint256",
          "name": "tokenId",
          "type": "uint256"
        }
      ],
      "name": "Transfer",
      "type": "event"
    },
    {
      "inputs": [],
      "name": "name",
      "outputs": [
        {
          "internalType": "string",
          "name": "",
          "type": "string"
        }
      ],
      "stateMutability": "view",
      "type": "function"
    },
    {
      "inputs": [
        {
          "internalType": "uint256",
          "name": "tokenId",
          "type": "uint256"
        }
      ],
      "name": "ownerOf",
      "outputs": [
        {
          "internalType": "address",
          "name": "",
          "type": "address"
        }
      ],
      "stateMutability": "view",
      "type": "function"
    },
    {
      "inputs": [],
      "name": "symbol",
      "outputs": [
        {
          "internalType": "string",
          "name": "",
          "type": "string"
        }
      ],
      "stateMutability": "view",
      "type": "function"
    },
    {
      "inputs": [
        {
          "internalType": "uint256",
          "name": "tokenId",
          "type": "uint256"
        }
      ],
      "name": "tokenURI",
      "outputs": [
        {
          "internalType": "string",
          "name": "",
          "type": "string"
        }
      ],
      "stateMutability": "view",
      "type": "function"
    }
  ],
  "bytecode": {
    "object": "0x608060405234801561001057600080fd5b5060405161081e38038061081e83398101604081905261002f916101b9565b815161004290600090602085019061005e565b50805161005690600190602084019061005e565b505050610257565b82805461006a9061021c565b90600052602060002090601f01602090048101928261008c57600085556100d2565b82601f106100a557805160ff19168380011785556100d2565b828001600101855582156100d2579182015b828111156100d25782518255916020019190600101906100b7565b506100de9291506100e2565b5090565b5b808211156100de57600081556001016100e3565b634e487b7160e01b600052604160045260246000fd5b600082601f83011261011e57600080fd5b81516001600160401b0380821115610138576101386100f7565b604051601f8301601f19908116603f01168101908282118183101715610160576101606100f7565b8160405283815260209250868385880101111561017c57600080fd5b600091505b8382101561019e5785820183015181830184015290820190610181565b838211156101af5760008385830101525b9695505050505050565b600080604083850312156101cc57600080fd5b82516001600160401b03808211156101e357600080fd5b6101ef8683870161010d565b9350602085015191508082111561020557600080fd5b506102128582860161010d565b9150509250929050565b600181811c9082168061023057607f821691505b6020821081141561025157634e487b7160e01b600052602260045260246000fd5b50919050565b6105b8806102666000396000f3fe608060405234801561001057600080fd5b506004361061004c5760003560e01c806306fdde03146100515780636352211e1461006f57806395d89b411461009a578063c87b56dd146100a2575b600080fd5b6100596100b5565b6040516100669190610402565b60405180910390f35b61008261007d366004610435565b610147565b6040516001600160a01b039091168152602001610066565b6100596101cf565b6100596100b0366004610435565b6101de565b6060600080546100c49061044e565b80601f01602080910402602001604051908101604052809291908181526020018280546100f09061044e565b801561013d5780601f106101125761010080835404028352916020019161013d565b820191906000526020600020905b81548152906001019060200180831161012057829003601f168201915b5050505050905090565b6000818152600260205260408120546001600160a01b0316806101c95760405162461bcd60e51b815260206004820152602f60248201527f536f756c626f756e644e46543a206f776e657220717565727920666f72206e6f60448201526e3732bc34b9ba32b73a103a37b5b2b760891b60648201526084015b60405180910390fd5b92915050565b6060600180546100c49061044e565b6000818152600260205260409020546060906001600160a01b03166102635760405162461bcd60e51b815260206004820152603560248201527f536f756c626f756e644e46544d657461646174613a20555249207175657279206044820152743337b9103737b732bc34b9ba32b73a103a37b5b2b760591b60648201526084016101c0565b600061027a60408051602081019091526000815290565b9050600081511161029a57604051806020016040528060008152506102c5565b806102a4846102cc565b6040516020016102b5929190610489565b6040516020818303038152906040525b9392505050565b6060816102f05750506040805180820190915260018152600360fc1b602082015290565b8160005b811561031a5780610304816104ce565b91506103139050600a836104ff565b91506102f4565b60008167ffffffffffffffff81111561033557610335610513565b6040519080825280601f01601f19166020018201604052801561035f576020820181803683370190505b5090505b84156103ca57610374600183610529565b9150610381600a86610540565b61038c906030610554565b60f81b8183815181106103a1576103a161056c565b60200101906001600160f81b031916908160001a9053506103c3600a866104ff565b9450610363565b949350505050565b60005b838110156103ed5781810151838201526020016103d5565b838111156103fc576000848401525b50505050565b60208152600082518060208401526104218160408501602087016103d2565b601f01601f19169190910160400192915050565b60006020828403121561044757600080fd5b5035919050565b600181811c9082168061046257607f821691505b6020821081141561048357634e487b7160e01b600052602260045260246000fd5b50919050565b6000835161049b8184602088016103d2565b8351908301906104af8183602088016103d2565b01949350505050565b634e487b7160e01b600052601160045260246000fd5b60006000198214156104e2576104e26104b8565b5060010190565b634e487b7160e01b600052601260045260246000fd5b60008261050e5761050e6104e9565b500490565b634e487b7160e01b600052604160045260246000fd5b60008282101561053b5761053b6104b8565b500390565b60008261054f5761054f6104e9565b500690565b60008219821115610567576105676104b8565b500190565b634e487b7160e01b600052603260045260246000fdfea26469706673582212201559e15b26fe9d82329f8a208f254ac261f1ed0023a1f3b641089875faeafbf764736f6c634300080a0033",
    "linkReferences": {}
  }
}